:020000040800F2
:10000000300700208901000805190008C9140008FC
:100010000119000845020008191900080000000035
:100020000000000000000000000000000D190008A2
:10003000FD0300080000000009190008111900085C
:10004000A3010008A3010008A3010008A301000800
:10005000A3010008A3010008A3010008A3010008F0
:10006000A3010008A3010008A3010008A3010008E0
:10007000A3010008A3010008A3010008A3010008D0
:10008000A3010008A3010008A3010008A3010008C0
:10009000A3010008A3010008A3010008A3010008B0
:1000A000A3010008A3010008A3010008A3010008A0
:1000B000A3010008A3010008A3010008A301000890
:1000C000A3010008A3010008A3010008A301000880
:1000D000A3010008A3010008A3010008A301000870
:1000E000A3010008A3010008A301000800F002F822
:1000F00000F03AF80AA090E8000C82448344AAF188
:100100000107DA4501D100F02FF8AFF2090EBAE885
:100110000F0013F0010F18BFFB1A43F0010318473B
:10012000A8310000C8310000103A24BF78C878C157
:10013000FAD8520724BF30C830C144BF04680C60ED
:10014000704700000023002400250026103A28BF35
:1001500078C1FBD8520728BF30C148BF0B60704739
:100160001FB51FBD10B510BD00F031F81146FFF7E7
:10017000F7FF01F0FFFE00F04FF803B4FFF7F2FFC6
:1001800003BC00F057F800000948804709480047C1
:10019000FEE7FEE7FEE7FEE7FEE7FEE7FEE7FEE737
:1001A000FEE7FEE704480549054A064B7047000094
:1001B00015190008ED00000830010020300700206C
:1001C00030030020300300207047704770477546A9
:1001D00000F02CF8AE4605006946534620F00700B3
:1001E000854618B020B5FFF7DDFFBDE820404FF091
:1001F00000064FF000074FF000084FF0000BAC4630
:10020000ACE8C009ACE8C009ACE8C009ACE8C0097A
:1002100021F007018D46704710B50446AFF300800A
:100220002046BDE81040FFF7A8BF00000048704717
:100230001000002001491820ABBEFEE72600020096
:1002400070470000FEE700002DE9F04740F600444B
:1002500040F270064FF00008C4F20104C2F200063A
:100260004FF00109002503E00135082DBA4643D0BF
:1002700000F0F4F9706100BF00F0F0F9B0612046C1
:100280004FF4007100F0DEF920B9D6E90501023023
:100290008842F1D8F069C0F8248000BF416A27295C
:1002A00008D8416A272905D8416A272902D8416A16
:1002B0002829F3D320464FF4007100F0C3F9C5F1AB
:1002C000070109FA01F14AEA0107002808BF2AEAF2
:1002D000010700F0C3F9706100F0C0F9B061204679
:1002E0004FF4007100F0AEF90028BDD0D6E9050149
:1002F00002308842F0D8B7E7F8B2BDE8F0870000D6
:1003000070B584B04FF4007040F6004400900120B6
:10031000C4F20104019002200390002569462046A2
:10032000029500F081F820464FF40071002200F0A1
:100330008FF9142000F064F820464FF40071012278
:1003400000F086F940F27006C2F20006F0694562DC
:10035000416A1D2908D8416A1D2905D8416A1D290D
:1003600002D8416A1E29F3D3012000250290694674
:100370002046019500F058F8F0694562416A272946
:1003800008D8416A272905D8416A272902D8416A35
:100390002829F3D320464FF4007100F053F94FF0B1
:1003A0000005B0B9F0694562416A4F2908D8416A31
:1003B0004F2905D8416A4F2902D8416A5029F3D301
:1003C00020464FF4007100F03DF90546002818BFA3
:1003D000012500F043F9706100F040F9B06120465A
:1003E0004FF4007100F02EF920B1D6E9050102307A
:1003F0008842F1D8284604B070BD00007047000064
:10040000B0B5044600F02AF9054640F20000C2F2F9
:1004100000000078611C18BF044400BF00F01EF902
:10042000401BA042FAD3B0BD2DE9F04F82B00E6858
:10043000002E00F0038141F20042C4F201020423C5
:1004400040F2004E904208BF03234FF6FF7CC4F2F7
:10045000010E009300240123C1F2100C4FF0000A9A
:100460004FF0000949E000BF012704F00C030F2200
:100470009A402BEA020207FA03F34FEA9A051A435D
:1004800046F82520D1F804B040F20C455FEACB22B3
:10049000DEF8082054BF22EA080242EA0802C4F249
:1004A0000105CEF808202A685FEA8B2354BF22EAB0
:1004B000080242EA08022A605FEA8B33DEF8042071
:1004C00054BF22EA080242EA08025FEACB33CEF8C0
:1004D0000420DEF800204FF0010354BF22EA080296
:1004E00042EA0802CEF800200E680AF1010A36FA44
:1004F0000AF204F1040400F0A18003FA0AF816EAF3
:10050000080FF1D04E68664512DC122E56D8DFE88F
:1005100006F0350B454955555555555555555555C5
:100520005555554D510000BFD1F80C9046E000BF25
:100530004FF6FF72C1F2210296420FDC0022C1F297
:10054000110296421AD00022C1F21202964215D030
:100550000022C1F22102964210D02FE00022C1F207
:10056000220296420AD00022C1F23102964205D000
:100570000022C1F23202964220D100BF8A684AB1FD
:10058000012A14BFC0F81480C0F810804FF0080989
:1005900014E000BF4FF0040910E000BFCA6802F188
:1005A00008090BE04FF0000908E000BFCA6802F13B
:1005B000040903E0CA6802F10C0900BF224606469E
:1005C000BAF1080F24BF203A043637680F2595404A
:1005D00027EA050509FA02F22A433260CA79D206EF
:1005E0007FF582AF41F21803C4F202031A68AEF538
:1005F0007E7642F001021A601A6802F0010201924E
:10060000019A2AF0030256F802B040F60002C4F242
:100610000102904210D040F60042C4F20102904222
:100620003FF422AF41F20002C4F20102009F904267
:1006300008BF022719E700BF002716E702B0BDE890
:10064000F08F00008068084018BF0120704700004C
:10065000002A08BF090401617047000040F2281019
:10066000C2F200000068704770B5B8B3044690F855
:100670003D0028B9002084F83C00204600F09AF99B
:10068000242084F83D002068016821F00101016008
:10069000016841F400410160016821F400410160FA
:1006A00000F03EFB48F28041C0F21E0140F600130C
:1006B000D4F804E088424FF00001C0F23D0348F254
:1006C000A16C4FF0000238BF01219842C0F2010C2A
:1006D00038BF0122E64538BF0A460AB1012070BD85
:1006E0004DF68361C4F21B31A0FB01122168950C09
:1006F0004B684FF4967623F03F0343EA92437543E9
:1007000044F6D3564B60C1F262060B6AA5FB06564F
:10071000B50923F03F03E64538BF950C6A1C1A4320
:100720000A62CA6948F2A0664CF6FF73C0F201067D
:10073000B64522EA03020BD801384FEA4E03B0FB5C
:10074000F3F001306FF31F30042898BF04201EE03F
:10075000A368013863B119230EFB03F3B0FBF3F078
:1007600001306FF31F3078B100F5804008E000BF22
:100770000EEB4E03B0FBF3F001306FF31F3028B1E6
:1007800000F5004003E000BF012000E0012010431D
:10079000C8610868D4E9072320F0C000104318435B
:1007A0000860886848F2FF3204F10C0690434CCE92
:1007B00018431043A5698860C86820F0FF003043E3
:1007C0002843C860086840F001000860002020212C
:1007D000206484F83D10206384F83E0070BD000062
:1007E0002DE9F04383B01E46174689460446FFF7BD
:1007F00035FF94F83D10202920D10546206800BF20
:100800008169890716D5FFF729FF411B20681A293E
:10081000F6D381698907F3D500202021206384F86D
:100820003D1084F83E00216C41F02001216484F8E1
:100830003C0003E094F83C10012903D1022003B0EE
:10084000BDE8F083012184F83C100168C90703D199
:10085000016841F001010160016840F2020821F4E1
:1008600000610160212184F83D10102184F83E10C0
:100870000021216467626685618DC0F201082185CF
:10088000A8F10211E162E16A0A9E11F5803F18BFEA
:1008900001291DD1016841F48071016020464FF0AB
:1008A000011100223346009500F070FE50B120681F
:1008B0000068C00544BF4FF400702064012003B0FD
:1008C000BDE8F0832069B0F5804F07D1FE2015E028
:1008D0000829DFD0216B1229DCD0DFE7062000EAEF
:1008E000D9102168F030086108F10601204632462F
:1008F0002B4600F035FF0028E0D1FF20216800EAF8
:10090000090008612046414632462B4600F028FF88
:100910000028D3D1002002902068416902918069AB
:100920000290029806E000BF204631462A4600F0B9
:10093000CDFD18BB208D68B3204631462A4600F015
:100940007FFFD8B9606A2168024612F8013B0B614B
:100950006262628D013A6285228D531E23854F6942
:100960007F07E1D51B04DFD0437802300B61606262
:10097000608D01386085901E2085D5E7206C0428A5
:100980009CD12068016841F400710160012003B02E
:10099000BDE8F0832068016841F400710160202007
:1009A00084F83D00002084F83E0084F83C0003B049
:1009B000BDE8F08310B586B045F200410068C4F28E
:1009C000000100228842049202D006B010BD00BF90
:1009D00041F21804C4F20204206840F008002060CC
:1009E000206800F0080001900198C02002901220B9
:1009F00003900320059001F5384002A9FFF714FD8C
:100A0000606840F400106060606800F400100190BD
:100A1000019806B010BD000040F2000040F228111D
:100A2000C2F20000C2F2000100780A6810440860B7
:100A30007047000080B542F20000C4F20200016875
:100A400041F010010160032000F07AF80F2000F05F
:100A500005F800F027F8002080BD000070B540F2D6
:100A60000006C2F2000640F208013278C2F200012C
:100A70004FF47A730968B3FBF2F20446B1FBF2F16A
:100A8000084600F03BFB0F2C4FF0010508D838B9A1
:100A90004FF0FF3021460022002500F025F8746059
:100AA000284670BD82B041F21800C4F2020001680D
:100AB000022241F001010160016801F00101019190
:100AC0000199416841F080514160406800F08050D8
:100AD000009000980420C4F20100016862F31A61DA
:100AE000016002B07047000010B54EF60C5CCEF20B
:100AF000000CDCF80030C3F3022E8EF00704042C47
:100B000028BF0424BEF103034FF0FF3E0EFA04F4A5
:100B100038BF0023A14399400EFA03F39A431143CF
:100B200000F00F0200F160430901043A03F5644349
:100B30006244002848BF02F10C03197010BD000088
:100B40004EF60C51CEF200010A684FF6FF031A4030
:100B500060F30A2242F0806040F0FD700860704748
:100B60002DE9F04381B0002800F0858042F20008B2
:100B7000C4F202080446D8F800000D4600F0070051
:100B800088420CD2D8F8000020F007002843C8F8AB
:100B90000000D8F8000000F00700A8426BD12068E0
:100BA00041F204098107C4F2020917D5410705D5AE
:100BB000D9F8001041F4E061C9F80010010705D52B
:100BC000D9F8001041F46051C9F80010D9F80010AC
:100BD000A26821F0F0011143C9F80010C00741D10B
:100BE000D8F8000000F00700A8420CD9D8F800009F
:100BF00020F007002843C8F80000D8F8000000F0F3
:100C00000700A84237D12068410707D5D9F800105E
:100C1000E26821F4E0611143C9F80010000708D52B
:100C2000D9F80000216920F4605040EAC100C9F8F9
:100C30000000D9F8002002F00C00082841F2002042
:100C4000C0F27A0050D143F25C23C2F38341C0F674
:100C50000003595CD2033BD440F60010C0F23D00C3
:100C6000484341E0606802280AD001282AD159F897
:100C7000041C890308D4012001B0BDE8F08300BF43
:100C800059F8041C8901F6D5D9F8001021F00301A8
:100C90000843C9F80000FFF7E1FC064641F2883737
:100CA000D9F80000616800F00C00B0EB810F97D01C
:100CB000FFF7D4FC801BB842F2D9032001B0BDE895
:100CC000F08300BF59F8041C8907D4D5DCE700BFC6
:100CD000D9F8002043F25A23C2F34042C0F6000381
:100CE0009A5C4843B0FBF2F0D9F8001043F242227C
:100CF000C1F30311C0F60002515C40F2080220FA71
:100D000001F140F20400C2F200000068C2F20002E9
:100D10001160FFF7A3FE002001B0BDE8F0830000E2
:100D200040F2080041F20401C2F20000C4F20201E4
:100D30000068096843F25222C1F30221C0F60002A2
:100D4000515CC840704700002DE9F04182B0002896
:100D500068D00446007841F20006C007C4F20206DB
:100D600025D0706800F00C0004281BD0706800F0DB
:100D70000C00082802D17068C00313D460680028F2
:100D800000F06881B0F5A02F00F07C81B0F5803FC5
:100D900000F07C81306820F480303060306820F4CE
:100DA000802076E13068800301D56068D0B3207878
:100DB000800718D5706810F00C0F07D0706800F02D
:100DC0000C0008286ED17068C0036BD430688007AF
:100DD00002D52069012825D13068616920F0F8002A
:100DE00040EAC1003060207800071FD42078400717
:100DF00032D4E56995B1706800F00C00082840F025
:100E00008F80012D0ED07068216A00F480328A42F2
:100E100008D1616A00F47010884203D1002002B04A
:100E2000BDE8F081012002B0BDE8F081A069002892
:100E300062D00020C4F242200121C0F88014FFF7E4
:100E40000DFC0546706A800700F18C80FFF706FCF8
:100E5000401B0228F6D92AE1F06910F0805808D129
:100E6000F06940F08050F061F06900F0805000902F
:100E7000009847F20007C4F200073868C00529D47B
:100E8000386840F480703860FFF7E8FB054600BF23
:100E90003868C0051ED4FFF7E1FB401B6428F7D972
:100EA00005E100BF2069002840F20000C4F24220A2
:100EB00000F0828001210160FFF7D0FB054600BFF2
:100EC000306880073FF588AFFFF7C8FB401B02285A
:100ED000F6D9ECE0E068002800F08080052800F0FA
:100EE0009780012800F09880306A20F0010030627D
:100EF000306A20F0040092E00020C4F24220002179
:100F0000C0F88014FFF7AAFB054600BF706A80078F
:100F10007FF56CAFFFF7A2FB401B0228F6D9C6E0B5
:100F20000027C4F2422700203866FFF797FB022D06
:100F300005460BD13068800140F1BE80FFF78EFB83
:100F4000401B02284FF00300F4D968E730688001A5
:100F50007FF564AFFFF782FB401B02284FF00300D0
:100F6000F4D95CE740F20800C2F20000006844F6E1
:100F7000D351C1F26201A0FB0101480A019000BFF8
:100F800000BF0198411E002801913FF42FAF00BF20
:100F90000198411E002801913FF428AF00BF01983D
:100FA000411E002801913FF421AF00BF0198411E6E
:100FB00000280191E4D119E700210160FFF74EFB01
:100FC000054600BF306880077FF50DAFFFF746FB91
:100FD000401B02284FF00300F4D920E7306A20F0CC
:100FE00001003062306A20F004003062FFF736FB07
:100FF000054641F2883700BF306A800720D5FFF7E9
:101000002DFB401BB8424FF00300F5D907E700BFA6
:10101000306A40F004003062306A40F00100306213
:10102000FFF71CFB054641F2883700BF306A800796
:1010300006D4FFF713FB401BB842F7D937E000BFD7
:10104000B8F1000F7FF4D5AEF06920F08050F06168
:10105000CFE600BF306820F480303060306820F484
:1010600080203060FFF7FAFA054600BF3068800341
:101070007FF59DAEFFF7F2FA401B64284FF00300A6
:10108000F4D9CCE6306840F480203060306840F419
:1010900080303060FFF7E2FA054600BF3068800319
:1010A0003FF585AEFFF7DAFA401B6428F6D9032036
:1010B00002B0BDE8F08100BF206AB0F5803F05D1E5
:1010C0007168A26821F40031114371607168626A2D
:1010D00021F4741111430843706001203866FFF752
:1010E000BDFA0446306880013FF598AEFFF7B6FAC6
:1010F000001B02284FF00300F4D990E6411E0020A7
:10110000B0EB116F1CBF012070474EF21002CEF2FF
:10111000000251604EF62351CEF20001F0230B7015
:10112000072190601160704710B590F83C20012AAB
:101130004FF0020233D080F83D200268D2F804E07C
:10114000D2F808C00C682EF07003234340F2FF74FD
:10115000C4F20004A24253600ADCB2F1804F13D003
:1011600040F20043C4F200039A420DD011E000BFE8
:1011700042F60043C4F201039A4205D040F6000350
:10118000C4F200039A4204D149682CF08003194349
:1011900091600121002280F83D1080F83C2010462B
:1011A00010BD0000002804BF0120704710B50446A0
:1011B00090F83D0028B9002084F83C00204600F05B
:1011C00067F8022084F83D00206840F2FF7302684F
:1011D000C4F2000342F6004C9842C4F2010C15DC44
:1011E000B0F1804F1AD040F20041C4F200018842B1
:1011F00014D0984218DCB0F1804F1DD040F200416D
:10120000C4F20001884217D01AE000BF604505D043
:1012100040F60001C4F200018842EAD1A16822F040
:1012200070020A439842E6DD604505D040F60001B1
:10123000C4F20001884203D1216922F440720A43BA
:10124000A36922F08001D4F804E0E2681943604504
:101250000160C262C0F828E002D16169CCF83010A8
:1012600001214161002084F8461084F83E1084F882
:101270003F1084F8401084F8411084F8421084F83C
:10128000431084F8441084F8451084F83D1010BDD4
:1012900081B0006842F60041C4F20101884201D0E9
:1012A00001B0704741F21800C4F20200016841F435
:1012B00000610160006800F400600090009801B0D7
:1012C0007047000090F83D1001291CBF01207047B5
:1012D000022180F83D10006840F2FF71C4F2000165
:1012E000884209DCB0F1804F12D040F20041C4F2D4
:1012F000000188420CD012E042F60041C4F2010124
:10130000884205D040F60001C4F20001884206D1AF
:10131000816801F00701062904BF002070470168B9
:1013200041F00101016000207047000080B590F895
:101330003C20012A4FF0020200F0C28080F83D20DC
:10134000D0F800C04FF67772DCF8083023EA0202CA
:10135000CCF808200B684F2B28DC1F2B44DD202BFA
:1013600045D0302B43D0402B40F0AC80D1F804E086
:10137000C968DCF82030DCF8202022F00102CCF82B
:101380002020DCF8182022F0F00242EA011123F0BC
:101390000A0242EA0E02CCF81810CCF82020DCF841
:1013A000081041F0470121F0300180E06F2B27DD6C
:1013B000B3F5005F48D0B3F5805F7AD0702B40F072
:1013C0008180D1E901E3C968DCF8082043EA0E0313
:1013D00022F47F4243EA01211143CCF80810DCF8E3
:1013E000081041F0770162E00BB1102B6AD1DCF8F4
:1013F000081021F07001194341F0070157E000BFC8
:10140000502B35D0602B5DD1D1F804E0C968DCF8F1
:101410002030DCF8202022F01002CCF82020DCF86C
:10142000182022F4704242EA013123F0A00242EA7D
:101430000E12CCF81810CCF82020DCF8081041F07F
:10144000670121F0100132E0D1E901E3C968DCF85D
:10145000082043EA0E0322F47F4243EA01211143AC
:10146000CCF80810DCF8081041F480411FE000BF00
:10147000D1F804E0C968DCF82030DCF8202022F044
:101480000102CCF82020DCF8182022F0F00242EA19
:10149000011123F00A0242EA0E02CCF81810CCF82F
:1014A0002020DCF8081041F0570121F02001CCF891
:1014B00008100022012180F83D10002180F83C1026
:1014C000104680BD0122F5E7FEE7000070B5036815
:1014D000044653F8140F400711D40E46481C29D077
:1014E00086BB00BF1868400527D4FFF7B7F823680C
:1014F00053F8140F400739D518684007F2D500207B
:1015000070BD00BF18684007F9D41868400514D4AE
:1015100018684007F3D4186840050ED418684007CF
:10152000EDD41868400508D4186840074FF0000053
:1015300048BF70BD18684005E4D56FF4806018603E
:10154000042014E0154603E053F8140F4007D6D4E6
:1015500018684005F1D4FFF781F8401B2368B042BA
:10156000F2D958694007EFD4202000E02020002164
:101570002022216384F83D2084F83E10226C104321
:101580002064012084F83C1070BD00002DE9F0417A
:10159000054600681E46144601F47F0201338FB2EF
:1015A00042D0DDF81880B2F5803F40F08780406976
:1015B0003840C01BB0FA80F04009A04240F0C8801B
:1015C0004EB924E040693840C01BB0FA80F04009B1
:1015D000A04240F0BD80FFF741F8A0EB0801286869
:1015E000B142EFD941693940C91BB1FA81F14909CA
:1015F000A142E7D19BE000BF40693840C01BB0FA70
:1016000080F04009A0424FF0000040F0A680FFF7B4
:1016100025F8286841693940C91BB1FA81F14909A7
:10162000A142E9D183E000BFB2F5803F24D100BFE1
:1016300041693940C91BB1FA81F14909A14240F021
:10164000878041693940C91BB1FA81F14909A1423A
:1016500040F07E8041693940C91BB1FA81F14909E6
:10166000A14275D141693940C91BB1FA81F14909DB
:10167000A142DDD06CE000BF81693940C91BB1FADD
:1016800081F14909A14263D181693940C91BB1FA8D
:1016900081F14909A1425BD181693940C91BB1FA85
:1016A00081F14909A14253D181693940C91BB1FA7D
:1016B00081F14909A142DFD04AE000BF806938408A
:1016C000C01BB0FA80F04009A04241D146B923E0E6
:1016D00080693840C01BB0FA80F04009A0423BD17D
:1016E000FEF7BCFFA0EB08012868B142F0D9816980
:1016F0003940C91BB1FA81F14909A142E8D116E08C
:1017000080693840C01BB0FA80F04009A0424FF019
:10171000000018BFBDE8F081FEF7A0FF28688169CE
:101720003940C91BB1FA81F14909A142E8D1002031
:101730002021286385F83D1085F83E00296C41F092
:101740002001296485F83C000120BDE8F08100BF3C
:101750000020BDE8F08100BF0020BDE8F08100005E
:10176000F0B581B0044600681D4643698FB203EAB4
:101770000701B94202D1002001B0F0BD416916460F
:10178000013201F4806125D0002940D1CEB100BFE3
:10179000FEF764FF411B2068B14203D9416939401B
:1017A000B9424BD141693940B942E4D04169490558
:1017B000EED52CE041693940B942DCD04169490598
:1017C00025D4FEF74BFF206841693940B942F1D07A
:1017D000202024E0D9B941693940B942CBD04169D0
:1017E000490514D441693940B942C4D04169490519
:1017F0000DD441693940B942BDD04169490506D48B
:1018000041693940B942B6D041694905E3D501681B
:1018100041F4007101606FF4806141610420002196
:101820002022216384F83D2084F83E10226C10436E
:10183000206484F83C10012001B0F0BD2020EEE7C8
:1018400070B50368044653F8140F000611D40E4611
:10185000481C29D086BB00BF1868400527D4FEF776
:10186000FDFE236853F8140F000639D518680006EA
:10187000F2D5002070BD00BF18680006F9D41868C2
:10188000400514D418680006F3D4186840050ED437
:1018900018680006EDD41868400508D418680006DA
:1018A0004FF0000048BF70BD18684005E4D56FF4E4
:1018B00080601860042014E0154603E053F8140F0C
:1018C0000006D6D418684005F1D4FEF7C7FE401BC9
:1018D0002368B042F2D958690006EFD4202000E016
:1018E000202000212022216384F83D2084F83E102E
:1018F000226C10432064012084F83C1070BD00006D
:10190000FEE70000FEE7000070470000704700009F
:10191000FFF782B870470000FEE700002DE9F04FA6
:1019200083B09A4690460A2B4FF000024FF0000316
:101930000F460546A8BF4FF00A0A01F056FA88B9CB
:101940002D20C14687F0004709F8010BBAF1FF3F8F
:101950000CDDBAF1000F57D14FF0000A4FF0010B28
:1019600063E000BFC146BAF1FF3FF2DC0023C3F6DB
:10197000F07328463946002201F045FA10B14FF0C5
:10198000060A41E00023C4F2240328463946002217
:1019900001F039FA10B14FF0050A35E00023C4F226
:1019A000590328463946002201F02DFA10B14FF0B4
:1019B000040A29E044F20003C4F28F0328463946A2
:1019C000002201F020FA18B14FF0030A1CE000BF1A
:1019D00048F60003C4F2C30328463946002201F04A
:1019E00012FA18B14FF0020A0EE000BF46F60023CB
:1019F000C4F2F80328463946002201F004FA002810
:101A00004FF0010A00F0A08143F27020C0F6000000
:101A100000EBCA0150F83A204B682846394600F0DE
:101A200039FC05460F464FF0000B2846394600F0BA
:101A30007BFE044600F0A7FE02460B4628463946C8
:101A400001F042F8002C6BD0CDE901B846F2676B8B
:101A500048F21F5C48F6AD3E0022C6F2666BC5F246
:101A6000EB1CC6F6DB0E00BF84FB0B574FEAA70842
:101A700008EBD77704F10903132B07EB8703A4EBDB
:101A8000430309EB020503F1300309F802304DD39B
:101A900087FB0B36B30803EBD67303EB8303A7EB8B
:101AA000430307F109063033132E6B7044D384FBD4
:101AB0000C36731103EBD67383FB0B67BE0806EB82
:101AC000D77606EB8606A3EB460609333036132B92
:101AD000AE7037D344F6D353C1F2620384FB0336AE
:101AE000B31103EBD67383FB0B6784FB0E46BC0874
:101AF00004EBD77404EB8404A3EB44043034EC709F
:101B00003413093304EBD674132B02F10402ABD265
:101B100009EB0205DDE901B84D4518D83FE000BFEB
:101B2000302209F8012B4D4639E000BF0135DDE9CF
:101B300001B84D450BD832E00235DDE901B84D451D
:101B400005D82CE00335DDE901B84D4527D9AA1E9B
:101B5000134613F8017F99F800601E7009F8017BA5
:101B60004B451CD999F800301778137009F8017BA0
:101B70004A4514D9134613F8017D99F800601E7088
:101B800009F8017B4B450AD912F8023D99F800701B
:101B9000177009F8013B4A45A2F10202D8D8BBF1FF
:101BA000000F40F0CA802E232A46BAF1000F02F837
:101BB000013B23D01AF00306AAF1010920D000232B
:101BC000C4F22403002200F081FE04460F4600F018
:101BD000ABFD00F13001697000F0ECFD02460B46F0
:101BE0002046394600F070FF012E0FD102352A46FB
:101BF000CA46B9F1030FC0F0A08043E015469CE04F
:101C0000B9F1030FC0F099803CE000BF0023C4F29B
:101C10002403002200F05AFE04460F4600F084FD23
:101C200000F13001A97000F0C5FD02460B462046C8
:101C3000394600F049FF022E08D1AAF1020A033505
:101C40002A46B9F1030F78D31CE000BF0023C4F289
:101C500024030022AAF1030A00F038FE04460F46CE
:101C600000F062FD00F13001E97000F0A3FD0246D2
:101C70000B462046394600F027FF04352A46B9F1C5
:101C8000030F5AD340F20009C4F22409154600BFDD
:101C900000224B4600F01AFE04460F4600F044FDB9
:101CA00000F1300105F8041B00F084FD02460B46EC
:101CB0002046394600F008FF00224B4600F006FEA1
:101CC00004460F4600F030FD00F1300105F8031C1A
:101CD00000F070FD02460B462046394600F0F4FE47
:101CE00000224B4600F0F2FD04460F4600F01CFDBA
:101CF00000F1300105F8021C00F05CFD02460B46C5
:101D00002046394600F0E0FE00224B46AAF1040AC4
:101D100000F0DCFD04460F4600F006FD00F1300146
:101D200005F8011C00F046FD02460B4620463946E8
:101D300000F0CAFEBAF1000FAAD100214046297076
:101D400003B0BDE8F08F00BF4FF0010B4FF0000A69
:101D50006BE600002DE9F04184B048F68C0040F2BB
:101D6000D404C0F60C00C2F2000402904FF06408E4
:101D700002AA20464E210423CDF80080FEF730FD54
:101D800042F62D164627C0F60D1603AD20464E210D
:101D90002A4604230396CDF80080FEF721FD013F7B
:101DA000F4D104B0BDE8F08170B582B03220FEF706
:101DB00027FB40F2D40443F63C06C2F20004C0F60E
:101DC0000C06642501AA20464E21042301960095A5
:101DD000FEF706FD0520FEF713FB01AA20464E2163
:101DE000042301960095FEF7FBFC0120FEF708FB9B
:101DF00001AA20464E21042301960095FEF7F0FC2F
:101E00000A20FEF7FDFA42F62C00C0F60C00019005
:101E100001AA20464E2104230095FEF7E1FC0A208A
:101E2000FEF7EEFA42F62C00C8F68C00019001AAEB
:101E300020464E2104230095FEF7D2FC0120FEF738
:101E4000DFFA40F60C00C8F68C00019001AA20468B
:101E50004E2104230095FEF7C3FC0120FEF7D0FAC3
:101E600040F60C00C1F61C00019001AA20464E214C
:101E700004230095FEF7B4FC0120FEF7C1FA01200F
:101E8000FEF7BEFA40F60C00C6F66C00019001AAFF
:101E900020464E2104230095FEF7A2FC0120FEF708
:101EA000AFFA40F60C00CCF6CC00019001AA204617
:101EB0004E2104230095FEF793FC02B070BD000094
:101EC000012805D0002808BF41F0800102E000BFD2
:101ED00041F0C00180B582B021F00F00090100F18E
:101EE0000C0208308DF8050001F10C008DF8060099
:101EF00001F108008DF8070040F2D4008DF80420AD
:101F00004FF0640CC2F2000001AA4E210423CDF868
:101F100000C0FEF765FC02B080BD0000F0B583B0E4
:101F2000017821B340F2D404461E6427C2F20004B3
:101F300002AD00BF21F00F00090100F10D020930D0
:101F40008DF8090001F10D008DF80A0001F109007A
:101F50008DF808208DF80B0020464E212A460423D8
:101F60000097FEF73DFCB17801360029E2D103B0BD
:101F7000F0BD0000B2B0FEF75DFD00240120CDE908
:101F80001E44CDE91C4419901D904FF4E0104FF40D
:101F900080310225229019A8CDE91A14CDE92051EB
:101FA000FEF7D2FE20B1EFF3108072B6FEE700BF5D
:101FB0000F20CDE900054FF48060CDE903046846A9
:101FC00002210294FEF7CCFD20B1EFF3108072B62F
:101FD000FEE700BF41F21800C4F20200016840F6BB
:101FE000004441F0200101600168C4F2010401F0E5
:101FF0002001199119990168002241F00401016042
:1020000001684FF4007601F00401199119990168F3
:10201000002541F00801016000684FF4007100F0F4
:102020000800199019982046FEF712FB0120CDE90F
:102030001A0502201C9019A920461996FEF7F4F9FA
:1020400040F2D400A4F53841C2F2000048F2A06288
:102050004FF48043C0F2010280E82600C0E9035338
:10206000C0E90555C0E90755FEF7FEFA20B1EFF3C8
:10207000108072B6FEE700BF04F5005140F2700414
:10208000C2F20004204640F81C1F47214FF6FF72A1
:102090001C95CDE91A55CDE90055C0E90115C0E9F7
:1020A0000325C0E90555FFF77DF828B1EFF310804F
:1020B00072B600BFFEE700BF4FF4805004F11C056C
:1020C000199019A92846FFF731F928B1EFF31080CC
:1020D00072B600BFFEE700BF69462846FFF724F846
:1020E00020B1EFF3108072B6FEE700BF2846FFF77D
:1020F000E9F8FFF759FE6E46FEF702F90028FBD01B
:10210000FEF7A2F82070FEF79FF86070FEF79CF8CB
:10211000A070FEF799F8E070FEF796F894F800903A
:1021200094F801800146A07894F803A008EB090216
:10213000024452448A422171DED100F02DFF8346D1
:10214000504600F037FB0025C4F2240500222B4640
:1021500000F054F900F06CF80146584600F0CEFD4E
:102160000021C4F21011A06000F02AFF0021C4F287
:10217000A00100F04FFE4FF0844100F0BFFDE06091
:10218000484600F009FF0746404600F013FB0022D6
:102190002B4600F033F900F04BF80146384600F0CA
:1021A000ADFD2061FFF7D6FD00200021FFF788FE7E
:1021B00019A0FFF7B3FE00200921FFF781FEA068F8
:1021C00000F070FD19AD2A460223FFF7A7FB284651
:1021D000FFF7A4FE00200E21FFF772FE11A0FFF70B
:1021E0009DFE01200021FFF76BFE0FA0FFF796FE7A
:1021F00001200721FFF764FE206900F053FD3246FD
:102200000223FFF78BFB3046FFF788FE42F2107087
:10221000FEF7F6F870E700BF4E6869657420646FDA
:102220003A20000027430000446F20616D3A2000EF
:1022300021F0004201F00043A2F16052B2F5801F8C
:1022400028BFD2F17F6C0BD95FEA001C43EAC202BF
:1022500042EB507018BF704728BF20F00100704754
:10226000B2F5801FBCBF184670474FEA410C1CF501
:10227000001F02D2084600F06ABF70B500F0D0FB24
:1022800000000089FFF7F6BF4FF00040A0F5800086
:102290007047000010B591EA030F48BF83F0004378
:1022A00000F11A84841A71EB030C05D2121943EB66
:1022B0000C03001B61EB0C014FEA1154A4EB135CFF
:1022C000DFF81CE11EEA430F18BF9EEA445F00F0EE
:1022D000748021EA045123EA0E0343F48013DCF1F5
:1022E000200E32D322FA0CFE10EB0E0023FA0CFE65
:1022F00041EB0E01CCF1200E03FA0EFE10EB0E00A6
:10230000CCF1200E51F10001B1F5801F32D201EB6A
:10231000045112FA0EF2BDE8104058BF7047401C3D
:1023200038BF5FEA420218BF7047002814BF20F090
:10233000010041F100014FEA410313F5001F38BFCE
:102340007047A1F1C04100F0B9BB012A43EB030281
:10235000ACF1200CDCF11F0E32BF4FF0000E23FA5F
:102360000CF310EB030041EB0451B4EB115FD0D040
:10237000A1EB045101F58011490801EB04515FEA1A
:1023800030000ED350F1000038BF12FA0EFE08D113
:10239000BDE81040C9E7401C38BF5FEA4202CAD11D
:1023A000C3E7BDE810404FEA410313F5001F38BFF3
:1023B0007047A1F1C04100F081BB9EEA445F08D0A4
:1023C00011EA5E0FBDE8104004BF01F0004100209B
:1023D0007047BDE8104070B500F022FB64FBBE3EC4
:1023E0000000E0FF491058BFC1F140415B1058BFE9
:1023F000C3F140438B42EFF3008070472DE9C041A9
:1024000030B4DFF8A4C23CEA111418BF3CEA13143C
:1024100000F0ED801CEA111481EA030544EAD5744A
:1024200018BF1CEA131500F0C880A4EB050404F1E2
:102430007F7404F500344FF0004545EAC12145EAB8
:10244000C32341EA505143EA52534FEAC0204FEAB6
:10245000C222994208BF904200F09D804FEA136566
:102460000FF24416765D4FEA134506FB05F7C7F1F8
:10247000807706FB07F74FEAD737A7FB036876425A
:10248000A7FB06CEC8F5803838BFA8F1010807FBC6
:1024900008E6A6FB028C4FF0000EE6FB03CEDCF153
:1024A000000CCEF1004E38BFAEF1010EA6FB0C5869
:1024B0004FF00007E6FB0E87A1FB08C6A0FB07CE86
:1024C00016EB0E064FF0000545F10005E1FB076530
:1024D00015F1E04E7EBFA4F580345FEA46066D41FB
:1024E00016F1800745F100054FEA172747EA05670F
:1024F0004FEA15254FEA0666A6F1DE46B6F1805F83
:1025000020D9384605EBC47124F0010C01EB0C1105
:10251000BCF1FE6F02D8F0BCBDE8008124425CBF74
:1025200001F5801E9EEAC47F02D4F0BCBDE80081A4
:10253000244200F13980A1F1C041F0BCBDE8004166
:1025400000F0BCBA4FEAD02040EA41504FEAD12116
:102550004FEAD22242EA43524FEAD323A7FB028634
:1025600007FB036605FB02661EEA0E0F58BFA6EBCB
:102570000056B6EB00564FEA520E4EEAC37E18EBF9
:102580000E0E56EB530EBCD518EB02085E417F1CB5
:1025900055F10005B5E74FF480154FF000074FF0F7
:1025A00000064FF00008ACE701F1C04101F0004126
:1025B0004FF00000F0BCBDE800810CEA131511EAF1
:1025C0000C1F00D00CE013EA0C1F00F026804FF027
:1025D000000081EA030101F00041F0BCBDE8008188
:1025E000F0BCBDE8004181EA030100F067BAF0BC2D
:1025F000BDE8004170B500F013FA00BF097EFC3E53
:1026000000F007B84FF0000081EA030101F000413B
:10261000704781EA030100F051BAF0BCBDE8004107
:1026200022494FF000007047FFFDFBF9F7F5F4F287
:10263000F0EEEDEBE9E8E6E4E3E1E0DEDDDBDAD85D
:10264000D7D5D4D3D1D0CFCDCCCBCAC8C7C6C5C4BB
:10265000C2C1C0BFBEBDBCBBBAB9B8B7B6B5B4B3D2
:10266000B2B1B0AFAEADACABAAA9A8A8A7A6A5A4BD
:10267000A3A3A2A1A09F9F9E9D9C9C9B9A99999881
:102680009797969595949393929191908F8F8E8E24
:102690008D8C8C8B8B8A89898888878786858584B1
:1026A00084838382828181800000FF070000F87F9D
:1026B00051EA030C17D41CF5801F58BFBCF5801FCE
:1026C00000F10680994218BF704708BF90427047DA
:1026D00007D711F5801F58BF13F5801F19D49942F1
:1026E0007047894270471CF5801F08D5BCF5801FD4
:1026F000F7D58B4218BF704708BF824270474FF42E
:10270000001C1CEB410F38BF1CEB430F01D28B4266
:10271000704770B500F084F9922449004FF00051E1
:102720004FF08053FFF75EBE4FEA41034FEA535329
:10273000A3F58063D3F11E03C8BFD3F1210C0CDDD8
:102740004FF0004242EAC12242EA505232FA03FC00
:102750008CEAE17CACEBE1707047102BC4BF002029
:10276000704703F5787CBCF1FF3F04D06FF0004266
:1027700082EA2100704770B500F052F94992248036
:1027800000207047F2E710F0004248BF4042B0FA24
:1027900080F310FA03F10AD0C3F11D0303F580633F
:1027A00002EB03524FEA415002EBD12170474FF048
:1027B00000007047B0FA80F310FA03F10AD0C3F1B9
:1027C0001D0303F580634FEA03524FEA415002EBC9
:1027D000D12170474FF000007047000051EA030C10
:1027E00017D41CF5801F58BFBCF5801F00F1068070
:1027F000994218BF704708BF9042704707D711F53C
:10280000801F58BF13F5801F19D499427047894221
:1028100070471CF5801F08D5BCF5801FF7D58B428B
:1028200018BF704708BF824270474FF4001C1CEB72
:10283000410F38BF1CEB430F01D28B42704770B57C
:1028400000F0EEF8922449004FF080514FF0005311
:10285000FFF7C8BD51EA030C17D41CF5801F58BF01
:10286000BCF5801F00F10680994218BF704708BF71
:102870009042704707D711F5801F58BF13F5801F8E
:1028800019D499427047894270471CF5801F08D5BA
:10289000BCF5801FF7D58B4218BF704708BF824236
:1028A00070474FF4001C1CEB410F38BF1CEB430F6B
:1028B00001D28B42704770B500F0B2F89224490003
:1028C0004FF000514FF08053FFF78CBD70B5DFF82B
:1028D00048C11CEA111E1EBF1CEA13159EEA0C0F0C
:1028E00095EA0C0F00F06F8081EA03044EEAD47E73
:1028F000AE4421EA4C1123EA4C1341F4801143F415
:102900008013AEF17F7EA1FB024CA0FB036536195C
:1029100055EB0C05A1FB034C4CF10003A0FB021C82
:1029200016EB0C06654153F10003094218BF46F04F
:10293000010613F4007F0BD14FEA03314FEA053053
:1029400041EA155140EA165034036FF003020AE0E1
:102950004FEAC3214FEAC52041EA555140EA56509B
:10296000F4026FF0020202EB2E4201EB025585EAFF
:10297000CE710AD05FEA440C18BF24F0004450F135
:10298000000041F1000120EAD47040F2FE7C624573
:1029900000D270BDA84214BF4FF080444FF04044B5
:1029A000002E08BF0024BEF1806FA8BFA1F1C04176
:1029B000BDE8704080F2828001F1C04101F0004129
:1029C0004FF0000070470CEA13159EEA0C0F18BF79
:1029D00095EA0C0F06D081EA030E4FF000000EF0CE
:1029E000004170BD00F01CF88900013E00F007B8FE
:1029F00000F009B84FEA430C5FEA5C5C08D081EA5A
:102A0000030100F05BB84FEA410C5FEA5C5CF6D171
:102A100002494FF0000070470000FF070000F87FF8
:102A20000EF1020E2EF0030E5EF8046B364205D452
:102A3000012A43EB030515F5001F12D8012841EBCD
:102A4000010C1CF5001F0CD80ED14FEAD17C0CEB09
:102A50004C0C0CF1020C15F5001F08BF4CEBD37C9D
:102A600004E04FF0080C01E04FEAD37C0CEB4C057E
:102A700026FA05F606F00706B6F1040C06D20EEBB0
:102A8000860CBDE870404CF0010C6047DFE80CF0AC
:102A9000090B02024FF00041A1F500214FF00000A8
:102AA00070BD19461046012851EB010418BFD4F53A
:102AB000001484BF002001F0004170BD0808A0F59B
:102AC00000114FEA3101704710B591EA030F48BF7A
:102AD00083F000433FF5E6AB841A71EB030C07D299
:102AE0008CF0004C121943EB0C03001B61EB0C0142
:102AF0004FEA1154A4EB135CDFF8A4E11EEA430F84
:102B000018BF9EEA445F00F0B48021EA045123EA32
:102B10006E035242C3EB6E0338BF5B1EDCF1200E26
:102B200025D322FA0CFE10EB0E0043FA0CFE41EB0B
:102B30000E01CCF1200E03FA0EFE10EB0E00CCF1CC
:102B4000200E51F1000129D401EB045112FA0EF2CA
:102B5000BDE8104058BF7047401C1CBFB2F1004F89
:102B6000704700280CBF491C20F00100704712EB91
:102B7000020E43EB030218BF4FF0010E4EEA420271
:102B8000ACF1200CDCF11E0E56D943FA0CFE10EB12
:102B90000E00CCF11E0E51F1FF31D5D50EF1010E14
:102BA00012FA0EFE404141EB010101EB445C5FEA89
:102BB0005C5C10D901EB045110EBDE7038BFBEF144
:102BC000004FBDE8104018BF704700280CBF491CDB
:102BD00020F00100704734D24FEAD42C24F4006472
:102BE00011F500111BD0B1FA81F20B3AA41AA41E00
:102BF000D2F12003914030FA03F31943904001EBE6
:102C0000CC7101EB0451002CBDE81040A8BF704707
:102C100001F1C04101F000414FF000007047B0FAEF
:102C200080F310FA03F102D1BDE810407047E41AB6
:102C3000173C4805C90AE2E701EB0451BDE8104022
:102C4000704749104FEA300001EB0451BDE81040D5
:102C500002E04FF0000170474A0008BF0042F8D080
:102C6000B2F5001F28BF704701F000414FF000008F
:102C700070479EEA445F07D011EA5E0FBDE810403E
:102C800004BF002100207047BDE8104070B5FFF779
:102C9000C7FE00BF40DFF63E104683F0004170479C
:102CA0000000E0FF43004FEAD30C4FEA3C0C4340E6
:102CB0001FBF40070CF1605113F0FE4F70471CF02E
:102CC000006F03D10CF00041002070470CF000436E
:102CD00043EA507040EACC0010B500F0F2F900BFB2
:102CE000000000924FEA0001FFF7E8BE4FF00041FC
:102CF000A1F500214FF000007047000090EA010F9D
:102D000048BF81F0004100F12E82421A3CBF801A78
:102D100089184FEAD052A2EBD1534FF07F4C1CEAF6
:102D2000410F18BF9CEA026F00F03B804FF0004C4F
:102D30004CEA00204CEA012121FA03FC10EB0C0CB8
:102D40001ED202F1FF325FEA1C2040EBC25038BFB6
:102D500070471CF07F0F4FEA400C18BFBCF17F4F4B
:102D600038BF7047C3F12003994008BF20F001002D
:102D7000BCF17F4F38BF7047A0F1C04000F0E7B909
:102D80004FEA3C00000A40EBC25028BF1CF0FF0F86
:102D90004FEA400CE6D018BFBCF17F4F38BF7047F8
:102DA000EAE79CEA026F05D010EA5C0F08BF00F06A
:102DB0000040704710B500F084F900BF64FBBE3ED0
:102DC00010B5FFF775FC0CBF0120002010BD10B539
:102DD000FFF76EFC14BF0120002010BD10B5FFF7F7
:102DE000FDFC8CBF0120002010BD10B5FFF7F6FCE4
:102DF0002CBF0120002010BD10B5FFF72BFD94BFA4
:102E00000120002010BD10B5FFF724FD34BF0120C4
:102E1000002010BD4FF47F0C1CEAD0121EBF1CEA2C
:102E2000D11392EA0C0F93EA0C0F00F0858090EA20
:102E3000010F48BF42F4807240F4000C41F40000DE
:102E40002CF07F4120F07F4000B5A2EB03028142CD
:102E50000FF2081CACEB504E9EF800E0C0F10000F1
:102E60004FEA4E0E00FB0EFC38BF49004FEA2C1C07
:102E70000CFB0EF34FEACE1E0EEB635E4FEA112CF5
:102E80000EFB0CFC4FEAC1214FEA1C5300FB03115F
:102E900002F5FA024FEA112C0EFB0CFC4FEA01314D
:102EA0004FEADC4C00FB0C1142EB2242C14228BF2E
:102EB00009184CEB03335DF804EB10EB410143EBD5
:102EC000C250B2F57C0F38BF704729D512F0F00F11
:102ED0001CBF00F1C04000F00040704700818283B9
:102EE0008485868788898B8C8D8E8F919293959619
:102EF00097999A9C9D9FA0A2A3A5A7A8AAACAEB0A3
:102F0000B2B3B5B7B9BCBEC0C2C5C7C9CCCED1D4A7
:102F1000D7D9DCDFE2E6E9ECF0F3F7FAFE000000D7
:102F20004FEA400C0CF1807CBCF17E4F28BF70470B
:102F3000B0F1C04000F00BB90CEAD11390EA010FD8
:102F400048BF42F48072624538BF634507D213F42C
:102F50007F0F16D080EA010000F00040704710B5E6
:102F600000F0AFF8097EFC3E00F005B880EA0100F1
:102F700000F00040704780EA010000F0004000F0DF
:102F8000E6B812F47F0F04BF0248704780EA0100E0
:102F900000F0DDB80000C07FB0FA80F310FA03F251
:102FA000C3F19D030AD0D90501EB1220530638BFA7
:102FB000704700F1010008BF20F0010070470000D9
:102FC0004FF47F0C1CEAD0121EBF1CEAD11392EA08
:102FD0000C0F93EA0C0F00F0478090EA010F48BFF6
:102FE00042F480724FF0004C4CEA00204CEA012180
:102FF00002EB0302A0FB0113A2F50002002918BF97
:1030000043F001035B0028BF4FEA330342EB224247
:103010005FEA132C4CEBC2502EBFBCEB436FB2F5F2
:103020007C0F70474FEA036CBCF1004F08BF20F0E3
:103030000100B2F57C0F38BF70470BD582F0FF025C
:1030400012F5803FC8BF704700F1C040D8BF00F004
:103050000040704700F5000C5FEA4C0C48BF704719
:10306000B0F1C04000F073B80CEAD11390EA010F40
:1030700048BF42F48072624538BF634504D280EA9B
:10308000010000F00040704710B500F01AF800BFD2
:103090008900013E00F007B800F009B85FEA410C72
:1030A0005FEA1C6C08D080EA010000F050B85FEACB
:1030B000400C5FEA1C6CF6D14FF00040A0F5800098
:1030C00070470EF1020E2EF0030E5EF8044B244200
:1030D00004D44FEA4102B2F17F4F11D84FEA4003C6
:1030E000B3F17F4F0CD80ED14FEAD07C0CEB4C0CD7
:1030F0000CF1020CB2F17F4F08BF4CEBD17C04E025
:103100004FF0080C01E04FEAD17C0CEB4C0324FAA1
:1031100003F404F00704B4F1040C06D20EEB840CA3
:10312000BDE810404CF0010C6047DFE80CF00708E8
:1031300002024FF00040A0F5800010BD084642009A
:1031400018BFD2F1807288BF00F0004010BDFF218F
:1031500041EAD050C005704790EA010F48BF81F0A6
:1031600000413FF5D2AD421A04D882F00042A0EBF4
:10317000020011444FEAD052A2EBD1534FF07F4CE2
:103180001CEA410F18BF9CEA026F4AD04FF0004C76
:103190004CEA00204CEA012121FA03FCB0EB0C0CB4
:1031A0000FD412F0FE0F36D05FEA4C001DD500128E
:1031B00040EBC25038BF70471CF03F0F18BF70473C
:1031C0000BE05FEA1C20A2F1010240EBC25038BFC5
:1031D00070471CF07F0F18BF7047C3F12003994060
:1031E00014BF401E20F0010070474FEA12238008F0
:1031F00008BF7047B0FA80FCA2EB0C02CCF1280C9F
:1032000060FA0CF093EA122F04BF00EBC250704733
:103210004FEAC3707047130A5FEADC1008BF7047BB
:10322000F6E79CEA026F04D010EA5C0F08BF0020AA
:10323000704710B5FFF745FF40DFF63E81F00040D4
:1032400070470000000000000000010203040607B0
:103250000809000000000102030401020203040542
:10326000060708090A0B0C0D0E0F101000000000D5
:10327000000000000000E03F9A9999999999A93FB0
:103280007B14AE47E17A743FFCA9F1D24D62403F16
:103290002D431CEBE2360A3FF168E388B5F8D43ED3
:1032A0008DEDB5A0F7C6A03E48AFBC9AF2D76A3EF6
:1032B0003A8C30E28E79353E95D626E80B2E013ECB
:1032C000BBBDD7D9DF7CCB3DE83200080000002031
:1032D0001000000028010008F8320008100000204B
:1032E0002007000044010008010000001000000059
:0832F0000024F40000000000BE
:04000005080000ED02
:00000001FF
